{
  "_format": "hh-sol-artifact-1",
  "contractName": "EventTicketing",
  "sourceName": "contracts/EventTicketing.sol",
  "abi": [
    {
      "inputs": [],
      "name": "EventAlreadyOccurred",
      "type": "error"
    },
    {
      "inputs": [],
      "name": "EventInPast",
      "type": "error"
    },
    {
      "inputs": [],
      "name": "EventNotCompleted",
      "type": "error"
    },
    {
      "inputs": [],
      "name": "EventNotFound",
      "type": "error"
    },
    {
      "inputs": [],
      "name": "IncorrectETHAmount",
      "type": "error"
    },
    {
      "inputs": [],
      "name": "InsufficientTickets",
      "type": "error"
    },
    {
      "inputs": [],
      "name": "InvalidTicketCount",
      "type": "error"
    },
    {
      "inputs": [],
      "name": "NoTicketsOwned",
      "type": "error"
    },
    {
      "inputs": [],
      "name": "NotOrganizer",
      "type": "error"
    },
    {
      "inputs": [],
      "name": "NothingToWithdraw",
      "type": "error"
    },
    {
      "anonymous": false,
      "inputs": [
        {
          "indexed": true,
          "internalType": "uint256",
          "name": "eventId",
          "type": "uint256"
        },
        {
          "indexed": true,
          "internalType": "address",
          "name": "organizer",
          "type": "address"
        },
        {
          "indexed": false,
          "internalType": "string",
          "name": "name",
          "type": "string"
        },
        {
          "indexed": false,
          "internalType": "uint256",
          "name": "date",
          "type": "uint256"
        },
        {
          "indexed": false,
          "internalType": "uint256",
          "name": "price",
          "type": "uint256"
        },
        {
          "indexed": false,
          "internalType": "uint256",
          "name": "totalTickets",
          "type": "uint256"
        }
      ],
      "name": "EventCreated",
      "type": "event"
    },
    {
      "anonymous": false,
      "inputs": [
        {
          "indexed": true,
          "internalType": "uint256",
          "name": "eventId",
          "type": "uint256"
        },
        {
          "indexed": true,
          "internalType": "address",
          "name": "organizer",
          "type": "address"
        },
        {
          "indexed": false,
          "internalType": "uint256",
          "name": "amount",
          "type": "uint256"
        }
      ],
      "name": "FundsWithdrawn",
      "type": "event"
    },
    {
      "anonymous": false,
      "inputs": [
        {
          "indexed": true,
          "internalType": "uint256",
          "name": "eventId",
          "type": "uint256"
        },
        {
          "indexed": true,
          "internalType": "address",
          "name": "buyer",
          "type": "address"
        },
        {
          "indexed": false,
          "internalType": "uint256",
          "name": "quantity",
          "type": "uint256"
        }
      ],
      "name": "TicketsPurchased",
      "type": "event"
    },
    {
      "anonymous": false,
      "inputs": [
        {
          "indexed": true,
          "internalType": "uint256",
          "name": "eventId",
          "type": "uint256"
        },
        {
          "indexed": true,
          "internalType": "address",
          "name": "from",
          "type": "address"
        },
        {
          "indexed": true,
          "internalType": "address",
          "name": "to",
          "type": "address"
        },
        {
          "indexed": false,
          "internalType": "uint256",
          "name": "quantity",
          "type": "uint256"
        }
      ],
      "name": "TicketsTransferred",
      "type": "event"
    },
    {
      "inputs": [
        {
          "internalType": "uint256",
          "name": "_eventId",
          "type": "uint256"
        },
        {
          "internalType": "uint256",
          "name": "_quantity",
          "type": "uint256"
        }
      ],
      "name": "buyTickets",
      "outputs": [],
      "stateMutability": "payable",
      "type": "function"
    },
    {
      "inputs": [
        {
          "internalType": "string",
          "name": "_name",
          "type": "string"
        },
        {
          "internalType": "uint256",
          "name": "_date",
          "type": "uint256"
        },
        {
          "internalType": "uint256",
          "name": "_price",
          "type": "uint256"
        },
        {
          "internalType": "uint256",
          "name": "_totalTickets",
          "type": "uint256"
        }
      ],
      "name": "createEvent",
      "outputs": [],
      "stateMutability": "nonpayable",
      "type": "function"
    },
    {
      "inputs": [
        {
          "internalType": "uint256",
          "name": "_eventId",
          "type": "uint256"
        }
      ],
      "name": "getEvent",
      "outputs": [
        {
          "components": [
            {
              "internalType": "address",
              "name": "organizer",
              "type": "address"
            },
            {
              "internalType": "string",
              "name": "name",
              "type": "string"
            },
            {
              "internalType": "uint256",
              "name": "date",
              "type": "uint256"
            },
            {
              "internalType": "uint256",
              "name": "price",
              "type": "uint256"
            },
            {
              "internalType": "uint256",
              "name": "totalTickets",
              "type": "uint256"
            },
            {
              "internalType": "uint256",
              "name": "ticketsRemaining",
              "type": "uint256"
            },
            {
              "internalType": "uint256",
              "name": "fundsCollected",
              "type": "uint256"
            }
          ],
          "internalType": "struct EventTicketing.Event",
          "name": "",
          "type": "tuple"
        }
      ],
      "stateMutability": "view",
      "type": "function"
    },
    {
      "inputs": [
        {
          "internalType": "address",
          "name": "_user",
          "type": "address"
        },
        {
          "internalType": "uint256",
          "name": "_eventId",
          "type": "uint256"
        }
      ],
      "name": "getUserTickets",
      "outputs": [
        {
          "internalType": "uint256",
          "name": "",
          "type": "uint256"
        }
      ],
      "stateMutability": "view",
      "type": "function"
    },
    {
      "inputs": [],
      "name": "nextEventId",
      "outputs": [
        {
          "internalType": "uint256",
          "name": "",
          "type": "uint256"
        }
      ],
      "stateMutability": "view",
      "type": "function"
    },
    {
      "inputs": [
        {
          "internalType": "address",
          "name": "",
          "type": "address"
        },
        {
          "internalType": "uint256",
          "name": "",
          "type": "uint256"
        }
      ],
      "name": "ticketsOwned",
      "outputs": [
        {
          "internalType": "uint256",
          "name": "",
          "type": "uint256"
        }
      ],
      "stateMutability": "view",
      "type": "function"
    },
    {
      "inputs": [
        {
          "internalType": "uint256",
          "name": "_eventId",
          "type": "uint256"
        },
        {
          "internalType": "uint256",
          "name": "_quantity",
          "type": "uint256"
        },
        {
          "internalType": "address",
          "name": "_to",
          "type": "address"
        }
      ],
      "name": "transferTickets",
      "outputs": [],
      "stateMutability": "nonpayable",
      "type": "function"
    },
    {
      "inputs": [
        {
          "internalType": "uint256",
          "name": "_eventId",
          "type": "uint256"
        }
      ],
      "name": "withdrawFunds",
      "outputs": [],
      "stateMutability": "nonpayable",
      "type": "function"
    }
  ],
  "bytecode": "0x608060405234801561001057600080fd5b50610d6f806100206000396000f3fe60806040526004361061007b5760003560e01c80636d1884e01161004e5780636d1884e01461012d578063814058be1461015a5780638627df461461017a5780639f9d903a1461018d57600080fd5b80630374ab0b14610080578063155dd5ee146100a25780633d23eed9146100c25780635eeba2ac146100e2575b600080fd5b34801561008c57600080fd5b506100a061009b36600461094f565b6101a3565b005b3480156100ae57600080fd5b506100a06100bd3660046109d7565b610334565b3480156100ce57600080fd5b506100a06100dd366004610a0c565b6104d5565b3480156100ee57600080fd5b5061011a6100fd366004610a41565b600260209081526000928352604080842090915290825290205481565b6040519081526020015b60405180910390f35b34801561013957600080fd5b5061014d6101483660046109d7565b610629565b6040516101249190610a6b565b34801561016657600080fd5b5061011a610175366004610a41565b6107a0565b6100a0610188366004610b0b565b6107cb565b34801561019957600080fd5b5061011a60005481565b4283116101c357604051632764c53f60e01b815260040160405180910390fd5b806000036101e457604051638e71bef960e01b815260040160405180910390fd5b6040518060e00160405280336001600160a01b0316815260200186868080601f016020809104026020016040519081016040528093929190818152602001838380828437600092018290525093855250505060208083018790526040808401879052606084018690526080840186905260a090930182905281548252600180825292909120835181546001600160a01b0319166001600160a01b039091161781559083015190918201906102989082610bc6565b5060408201518160020155606082015181600301556080820151816004015560a0820151816005015560c08201518160060155905050336001600160a01b03166000547e502bb4a70fbdfd0aa0d94a5600024efa4814e325c02c38409f206cdd72d6af8787878787604051610311959493929190610c86565b60405180910390a360008054908061032883610ce3565b91905055505050505050565b60008181526001602052604090205481906001600160a01b031661036b57604051635add554360e01b815260040160405180910390fd5b60008281526001602052604090205482906001600160a01b031633146103a4576040516323d03a7160e21b815260040160405180910390fd5b600083815260016020526040902060028101544210156103d757604051630aa0c3ad60e41b815260040160405180910390fd5b80600601546000036103fc57604051630686827b60e51b815260040160405180910390fd5b600681018054600091829055604051909190339083908381818185875af1925050503d806000811461044a576040519150601f19603f3d011682016040523d82523d6000602084013e61044f565b606091505b50509050806104965760405162461bcd60e51b815260206004820152600f60248201526e151c985b9cd9995c8819985a5b1959608a1b604482015260640160405180910390fd5b604051828152339087907ff440aec6b52895984d061d622e6edeba6210f7c3e059be920663140c084560d79060200160405180910390a3505050505050565b60008381526001602052604090205483906001600160a01b031661050c57604051635add554360e01b815260040160405180910390fd5b60008481526001602052604090206002810154421061053e5760405163156e566b60e11b815260040160405180910390fd5b3360009081526002602090815260408083208884529091529020548411156105795760405163a39a279f60e01b815260040160405180910390fd5b336000908152600260209081526040808320888452909152812080548692906105a3908490610cfc565b90915550506001600160a01b0383166000908152600260209081526040808320888452909152812080548692906105db908490610d0f565b90915550506040518481526001600160a01b03841690339087907f5c7f03b692ed11ce4d6344da92aa3e5da71d4d62e1471817c1616ea7d0c7de799060200160405180910390a45050505050565b6106726040518060e0016040528060006001600160a01b031681526020016060815260200160008152602001600081526020016000815260200160008152602001600081525090565b60008281526001602052604090205482906001600160a01b03166106a957604051635add554360e01b815260040160405180910390fd5b600083815260016020818152604092839020835160e0810190945280546001600160a01b031684529182018054918401916106e390610b43565b80601f016020809104026020016040519081016040528092919081815260200182805461070f90610b43565b801561075c5780601f106107315761010080835404028352916020019161075c565b820191906000526020600020905b81548152906001019060200180831161073f57829003601f168201915b505050505081526020016002820154815260200160038201548152602001600482015481526020016005820154815260200160068201548152505091505b50919050565b6001600160a01b03821660009081526002602090815260408083208484529091529020545b92915050565b60008281526001602052604090205482906001600160a01b031661080257604051635add554360e01b815260040160405180910390fd5b6000838152600160205260409020600281015442106108345760405163156e566b60e11b815260040160405180910390fd5b8260000361085557604051638e71bef960e01b815260040160405180910390fd5b828160050154101561087a57604051630678856f60e21b815260040160405180910390fd5b600083826003015461088c9190610d22565b90508034146108ae5760405163201c04ab60e01b815260040160405180910390fd5b838260050160008282546108c29190610cfc565b92505081905550808260060160008282546108dd9190610d0f565b90915550503360009081526002602090815260408083208884529091528120805486929061090c908490610d0f565b9091555050604051848152339086907ff7c58d5e745042ae3ed41454214210ae1bca7e4a2087c19a3fb2cfc0ed7648e79060200160405180910390a35050505050565b60008060008060006080868803121561096757600080fd5b853567ffffffffffffffff8082111561097f57600080fd5b818801915088601f83011261099357600080fd5b8135818111156109a257600080fd5b8960208285010111156109b457600080fd5b60209283019a909950918801359760408101359750606001359550909350505050565b6000602082840312156109e957600080fd5b5035919050565b80356001600160a01b0381168114610a0757600080fd5b919050565b600080600060608486031215610a2157600080fd5b8335925060208401359150610a38604085016109f0565b90509250925092565b60008060408385031215610a5457600080fd5b610a5d836109f0565b946020939093013593505050565b6000602080835260018060a01b03845116818401528084015160e0604085015280518061010086015260005b81811015610ab45782810184015186820161012001528301610a97565b50610120925060008382870101526040860151606086015260608601516080860152608086015160a086015260a086015160c086015260c086015160e086015282601f19601f830116860101935050505092915050565b60008060408385031215610b1e57600080fd5b50508035926020909101359150565b634e487b7160e01b600052604160045260246000fd5b600181811c90821680610b5757607f821691505b60208210810361079a57634e487b7160e01b600052602260045260246000fd5b601f821115610bc157600081815260208120601f850160051c81016020861015610b9e5750805b601f850160051c820191505b81811015610bbd57828155600101610baa565b5050505b505050565b815167ffffffffffffffff811115610be057610be0610b2d565b610bf481610bee8454610b43565b84610b77565b602080601f831160018114610c295760008415610c115750858301515b600019600386901b1c1916600185901b178555610bbd565b600085815260208120601f198616915b82811015610c5857888601518255948401946001909101908401610c39565b5085821015610c765787850151600019600388901b60f8161c191681555b5050505050600190811b01905550565b60808152846080820152848660a0830137600060a08683010152600060a0601f19601f88011683010190508460208301528360408301528260608301529695505050505050565b634e487b7160e01b600052601160045260246000fd5b600060018201610cf557610cf5610ccd565b5060010190565b818103818111156107c5576107c5610ccd565b808201808211156107c5576107c5610ccd565b80820281158282048414176107c5576107c5610ccd56fea26469706673582212204191ac28f3bba28ef4934a22a1d2e3efca37827215f7d49cd05f6cb80aa9d42364736f6c63430008140033",
  "linkReferences": {},
  "deployedLinkReferences": {}
}